:020000040800F2
:1000000000000220DD6200087555000877550008E1
:10001000795500087B5500087D5500080000000058
:100020000000000000000000000000007F550008F4
:100030008155000800000000835500088555000820
:100040002D6300082D6300082D6300082D63000850
:100050002D6300082D6300082D6300082D63000840
:100060002D6300082D6300082D6300082D63000830
:100070002D6300088D5500082D6300082D630008CE
:100080002D6300082D6300082D6300082D63000810
:100090002D6300082D6300082D6300082D63000800
:1000A0002D6300082D6300082D6300082D630008F0
:1000B0002D6300082D6300089D5500082D6300087E
:1000C0002D6300082D6300082D6300082D630008D0
:1000D0002D6300082D6300082D6300082D630008C0
:1000E000AD5500082D6300082D6300082D6300083E
:1000F0002D6300082D6300082D6300082D630008A0
:100100002D6300082D630008B95500082D63000811
:100110002D6300082D630008C95500082D630008F1
:100120002D6300082D6300082D6300082D6300086F
:100130002D6300082D6300082D6300082D6300085F
:100140002D6300082D6300082D6300082D6300084F
:100150002D6300082D6300082D6300082D6300083F
:100160002D6300082D6300082D6300082D6300082F
:100170002D6300082D6300082D6300082D6300081F
:100180002D6300082D6300082D6300082D6300080F
:100190002D630008000000002D6300082D63000897
:1001A0002D6300082D630008D95500082D63000851
:1001B0002D6300082D6300082D6300082D630008DF
:1001C0002D6300082D6300082D6300082D630008CF
:0801D0002D6300082D630008F7
:100200004FF0FF0C1CEAD0521EBF1CEAD15392EAF9
:100210000C0F93EA0C0F6FD01A4480EA010C4002D5
:1002200018BF5FEA41211ED04FF0006343EA50102F
:1002300043EA5111A0FB01310CF00040B1F5000F71
:100240003EBF490041EAD3715B0040EA010062F120
:100250007F02FD2A1DD8B3F1004F40EBC25008BF0A
:1002600020F00100704790F0000F0CF0004C08BF28
:1002700049024CEA502040EA51207F3AC2BFD2F1F5
:10028000FF0340EAC250704740F400004FF0000303
:10029000013A5DDC12F1190FDCBF00F0004070473D
:1002A000C2F10002410021FA02F1C2F1200200FA7B
:1002B00002FC5FEA310040F1000053EA4C0308BF42
:1002C00020EADC70704792F0000F00F0004C02BF93
:1002D000400010F4000F013AF9D040EA0C0093F00E
:1002E000000F01F0004C02BF490011F4000F013B68
:1002F000F9D041EA0C018FE70CEAD15392EA0C0FD6
:1003000018BF93EA0C0F0AD030F0004C18BF31F040
:10031000004CD8D180EA010000F00040704790F016
:10032000000F17BF90F0004F084691F0000F91F0BA
:10033000004F14D092EA0C0F01D142020FD193EA80
:100340000C0F03D14B0218BF084608D180EA010008
:1003500000F0004040F0FE4040F40000704740F0E4
:10036000FE4040F44000704780F0004002E000BFD3
:1003700081F0004142001FBF5FEA410392EA030F90
:100380007FEA226C7FEA236C6AD04FEA1262D2EBDA
:100390001363C1BFD218414048404140B8BF5B42DF
:1003A000192B88BF704710F0004F40F4000020F078
:1003B0007F4018BF404211F0004F41F4000121F08E
:1003C0007F4118BF494292EA030F3FD0A2F10102D8
:1003D00041FA03FC10EB0C00C3F1200301FA03F116
:1003E00000F0004302D5494260EB4000B0F5000F39
:1003F00013D3B0F1807F06D340084FEA310102F1F8
:100400000102FE2A51D2B1F1004F40EBC25008BFA9
:1004100020F0010040EA03007047490040EB000073
:10042000013A28BFB0F5000FEDD2B0FA80FCACF174
:10043000080CB2EB0C0200FA0CF0AABF00EBC250A1
:1004400052421843BCBFD0401843704792F0000F8F
:1004500081F4000106BF80F400000132013BB5E7E2
:100460004FEA41037FEA226C18BF7FEA236C21D058
:1004700092EA030F04D092F0000F08BF08467047BD
:1004800090EA010F1CBF0020704712F07F4F04D18B
:10049000400028BF40F00040704712F100723CBF9E
:1004A00000F50000704700F0004343F0FE4040F4C8
:1004B000000070477FEA226216BF08467FEA236386
:1004C0000146420206BF5FEA412390EA010F40F471
:1004D000800070474FF0000304E000BF10F00043BD
:1004E00048BF40425FEA000C08BF704743F09643A4
:1004F00001464FF000001CE050EA010208BF7047BF
:100500004FF000030AE000BF50EA010208BF704745
:1005100011F0004302D5404261EB41015FEA010C5A
:1005200002BF84460146002043F0B64308BFA3F152
:100530008053A3F50003BCFA8CF2083AA3EBC25334
:1005400010DB01FA02FC634400FA02FCC2F1200253
:10055000BCF1004F20FA02F243EB020008BF20F08A
:100560000100704702F1200201FA02FCC2F12002F0
:1005700050EA4C0021FA02F243EB020008BF20EAE5
:10058000DC7070474FF0FF3C06E000BF4FF0010CFD
:1005900002E000BF4FF0010C4DF804CD4FEA4002DD
:1005A0004FEA41037FEA226C18BF7FEA236C11D027
:1005B00001B052EA530C18BF90EA010F58BFB2EBDA
:1005C000030088BFC81738BF6FEAE17018BF40F05A
:1005D000010070477FEA226C02D15FEA402C05D10E
:1005E0007FEA236CE4D15FEA412CE1D05DF8040B93
:1005F000704700BF844608466146FFE70FB5FFF726
:10060000C9FF002848BF10F1000F0FBD4DF808EDDD
:10061000FFF7F4FF0CBF012000205DF808FB00BFCE
:100620004DF808EDFFF7EAFF34BF012000205DF828
:1006300008FB00BF4DF808EDFFF7E0FF94BF012075
:1006400000205DF808FB00BF4DF808EDFFF7D2FF72
:1006500094BF012000205DF808FB00BF4DF808EDB5
:10066000FFF7C8FF34BF012000205DF808FB00BF82
:100670004FEA4002B2F1FE4F0FD34FF09E03B3EBAF
:1006800012620DD94FEA002343F0004310F0004FEF
:1006900023FA02F018BF404270474FF00000704745
:1006A00012F1610F01D1420205D110F0004008BFE4
:1006B0006FF0004070474FF00000704753B94AB9DF
:1006C000002908BF00281CBF4FF0FF314FF0FF305A
:1006D00000F00CB8ADF1080C6DE904CE0AF04CFB4B
:1006E000DDF804E0DDE9022304B07047704700BF85
:1006F00000000000000000000000000000000000FA
:1007000030B490F800F020F007016FF0000C10F00A
:10071000070491F820F040F048804FF000046FF09B
:100720000700D1E9002391F840F000F1080082FAB7
:100730004CF2A4FA8CF283FA4CF3A2FA8CF34BBB82
:10074000D1E9022382FA4CF200F10800A4FA8CF2FB
:1007500083FA4CF3A2FA8CF3E3B9D1E9042382FAC9
:100760004CF200F10800A4FA8CF283FA4CF3A2FADE
:100770008CF37BB9D1E9062301F1200182FA4CF216
:1007800000F10800A4FA8CF283FA4CF3A2FA8CF37D
:10079000002BC6D0002A04BF04301A4612BAB2FA9F
:1007A00082F200EBD20030BC7047D1E9002304F0A4
:1007B0000305C4F100004FEAC50514F0040F91F8D9
:1007C00040F00CFA05F562EA05021CBF63EA050376
:1007D00062464FF00004AAE700000000000000009D
:1007E00001F0FF01102A2BDB10F0070F08D010F8E2
:1007F000013B013A8B422DD010F0070F42B3F6D1E6
:10080000F0B441EA012141EA014122F007047FF0FE
:1008100000070023F0E80256083C85EA010586EA55
:10082000010685FA47F5A3FA87F586FA47F6A5FA91
:1008300087F68EB9EED1F0BC01F0FF0102F007029D
:1008400032B110F8013B013A83EA010313B1F8D148
:100850000020704701387047002D06BF3546033829
:10086000073815F0010F07D1013015F4807F02BF62
:10087000013015F4C03F0130F0BC0138704700BFB3
:10088000844641EA000313F003036DD1403A41D39B
:1008900051F8043B40F8043B51F8043B40F8043B5A
:1008A00051F8043B40F8043B51F8043B40F8043B4A
:1008B00051F8043B40F8043B51F8043B40F8043B3A
:1008C00051F8043B40F8043B51F8043B40F8043B2A
:1008D00051F8043B40F8043B51F8043B40F8043B1A
:1008E00051F8043B40F8043B51F8043B40F8043B0A
:1008F00051F8043B40F8043B51F8043B40F8043BFA
:1009000051F8043B40F8043B51F8043B40F8043BE9
:10091000403ABDD2303211D351F8043B40F8043B89
:1009200051F8043B40F8043B51F8043B40F8043BC9
:1009300051F8043B40F8043B103AEDD20C3205D399
:1009400051F8043B40F8043B043AF9D2043208D091
:10095000D2071CBF11F8013B00F8013B01D30B8803
:1009600003806046704700BF082A13D38B078DD0E1
:1009700010F003038AD0C3F10403D21ADB071CBFB3
:1009800011F8013B00F8013B80D331F8023B20F81D
:10099000023B7BE7043AD9D3013A11F8013B00F856
:1009A000013BF9D20B7803704B7843708B788370DE
:1009B0006046704781F0004102E000BF83F00043D1
:1009C00030B54FEA41044FEA430594EA050F08BFEA
:1009D00090EA020F1FBF54EA000C55EA020C7FEAAE
:1009E000645C7FEA655C00F0E2804FEA5454D4EB2B
:1009F0005555B8BF6D420CDD2C4480EA020281EAF5
:100A0000030382EA000083EA010180EA020281EA2C
:100A10000303362D88BF30BD11F0004F4FEA01317E
:100A20004FF4801C4CEA113102D0404261EB41018D
:100A300013F0004F4FEA03334CEA133302D0524213
:100A400063EB430394EA050F00F0A780A4F10104CF
:100A5000D5F1200E0DDB02FA0EFC22FA05F2801809
:100A600041F1000103FA0EF2801843FA05F35941EF
:100A70000EE0A5F120050EF1200E012A03FA0EFC6E
:100A800028BF4CF0020C43FA05F3C01851EBE37198
:100A900001F0004507D54FF0000EDCF1000C7EEBB5
:100AA00000006EEB0101B1F5801F1BD3B1F5001FF3
:100AB0000CD349085FEA30004FEA3C0C04F1010412
:100AC0004FEA445212F5800F80F09A80BCF1004F3B
:100AD00008BF5FEA500C50F1000041EB045141EABD
:100AE000050130BD5FEA4C0C404141EB0101013C86
:100AF00028BFB1F5801FE9D291F0000F04BF014675
:100B00000020B1FA81F308BF2033A3F10B03B3F146
:100B100020020CDA0C3208DD02F1140CC2F10C02D6
:100B200001FA0CF021FA02F10CE002F11402D8BF34
:100B3000C2F1200C01FA02F120FA0CFCDCBF41EA00
:100B40000C019040E41AA2BF01EB0451294330BDCF
:100B50006FEA04041F3C1CDA0C340EDC04F11404AC
:100B6000C4F1200220FA04F001FA02F340EA030083
:100B700021FA04F345EA030130BDC4F10C04C4F1C9
:100B8000200220FA02F001FA04F340EA03002946A9
:100B900030BD21FA04F0294630BD94F0000F83F4F3
:100BA000801306BF81F480110134013D4EE77FEAD6
:100BB000645C18BF7FEA655C29D094EA050F08BF22
:100BC00090EA020F05D054EA000C04BF1946104603
:100BD00030BD91EA030F1EBF0021002030BD5FEA47
:100BE000545C05D14000494128BF41F0004130BD6F
:100BF00014F580043CBF01F5801130BD01F00045C3
:100C000045F0FE4141F470014FF0000030BD7FEA35
:100C1000645C1ABF194610467FEA655C1CBF0B4630
:100C2000024650EA013406BF52EA033591EA030F47
:100C300041F4002130BD00BF90F0000F04BF00213F
:100C4000704730B54FF4806404F132044FF0000572
:100C50004FF0000150E700BF90F0000F04BF0021EB
:100C6000704730B54FF4806404F1320410F0004551
:100C700048BF40424FF000013EE700BF42004FEA4C
:100C8000E2014FEA31014FEA02701FBF12F07F43C9
:100C900093F07F4F81F06051704732F07F4208BF80
:100CA000704793F07F4F04BF41F40021704730B587
:100CB0004FF4607401F0004521F000411CE700BFD3
:100CC00050EA010208BF704730B54FF000050AE056
:100CD00050EA010208BF704730B511F0004502D557
:100CE000404261EB41014FF4806404F132045FEA59
:100CF000915C3FF4D8AE4FF003025FEADC0C18BF02
:100D000003325FEADC0C18BF033202EBDC02C2F1F3
:100D1000200300FA03FC20FA02F001FA03FE40EA85
:100D20000E0021FA02F11444BDE600BF70B54FF089
:100D3000FF0C4CF4E06C1CEA11541DBF1CEA135567
:100D400094EA0C0F95EA0C0F00F0DEF82C4481EACF
:100D5000030621EA4C5123EA4C5350EA013518BFEF
:100D600052EA033541F4801143F4801338D0A0FBDC
:100D700002CE4FF00005E1FB02E506F00042E0FB89
:100D800003E54FF00006E1FB03569CF0000F18BF8F
:100D90004EF0010EA4F1FF04B6F5007F64F5407437
:100DA00004D25FEA4E0E6D4146EB060642EAC621CA
:100DB00041EA55514FEAC52040EA5E504FEACE2E37
:100DC000B4F1FD0C88BFBCF5E06F1ED8BEF1004F3A
:100DD00008BF5FEA500E50F1000041EB045170BDB6
:100DE00006F0004646EA010140EA020081EA0301FA
:100DF000B4EB5C04C2BFD4EB0C0541EA045170BDF6
:100E000041F480114FF0000E013C00F3AB8014F16F
:100E1000360FDEBF002001F0004170BDC4F10004B8
:100E2000203C35DA0C341BDC04F11404C4F1200539
:100E300000FA05F320FA04F001FA05F240EA020094
:100E400001F0004221F0004110EBD37021FA04F6CA
:100E500042EB06015EEA430E08BF20EAD37070BD84
:100E6000C4F10C04C4F1200500FA04F320FA05F0E3
:100E700001FA04F240EA020001F0004110EBD370E5
:100E800041F100015EEA430E08BF20EAD37070BD55
:100E9000C4F1200500FA05F24EEA020E20FA04F32E
:100EA00001FA05F243EA020321FA04F001F00041DD
:100EB00021FA04F220EA020000EBD3705EEA430E4E
:100EC00008BF20EAD37070BD94F0000F0FD101F07D
:100ED0000046400041EB010111F4801F08BF013CB6
:100EE000F7D041EA060195F0000F18BF704703F0F4
:100EF0000046520043EB030313F4801F08BF013D7B
:100F0000F7D043EA0603704794EA0C0F0CEA135536
:100F100018BF95EA0C0F0CD050EA410618BF52EAF0
:100F20004306D1D181EA030101F000414FF00000F6
:100F300070BD50EA410606BF1046194652EA430604
:100F400019D094EA0C0F02D150EA013613D195EA78
:100F50000C0F05D152EA03361CBF104619460AD1C0
:100F600081EA030101F0004141F0FE4141F47001CA
:100F70004FF0000070BD41F0FE4141F4780170BDBA
:100F800070B54FF0FF0C4CF4E06C1CEA11541DBF1F
:100F90001CEA135594EA0C0F95EA0C0F00F0A7F821
:100FA000A4EB050481EA030E52EA03354FEA01314E
:100FB00000F088804FEA03334FF0805545EA131361
:100FC00043EA12634FEA022245EA111545EA106529
:100FD0004FEA00260EF000419D4208BF964244F1C0
:100FE000FD0404F5407402D25B084FEA3202B61ADF
:100FF00065EB03055B084FEA32024FF480104FF4B3
:10100000002CB6EB020E75EB030E22BFB61A754626
:1010100040EA0C005B084FEA3202B6EB020E75EBB9
:10102000030E22BFB61A754640EA5C005B084FEA21
:101030003202B6EB020E75EB030E22BFB61A7546EE
:1010400040EA9C005B084FEA3202B6EB020E75EBF9
:10105000030E22BFB61A754640EADC0055EA060EBA
:1010600018D04FEA051545EA16754FEA06164FEAFD
:10107000C30343EA52734FEAC2025FEA1C1CC0D1A9
:1010800011F4801F0BD141EA00014FF000004FF036
:10109000004CB6E711F4801F04BF01430020B4F1F7
:1010A000FD0C88BFBCF5E06F3FF6AFAEB5EB030CAF
:1010B00004BFB6EB020C5FEA500C50F1000041EBAC
:1010C000045170BD0EF0004E4EEA113114EB5C0479
:1010D000C2BFD4EB0C0541EA045170BD41F480114C
:1010E0004FF0000E013C90E645EA060E8DE60CEA54
:1010F000135594EA0C0F08BF95EA0C0F3FF43BAF71
:1011000094EA0C0F0AD150EA01347FF434AF95EA27
:101110000C0F7FF425AF104619462CE795EA0C0F0B
:1011200006D152EA03353FF4FDAE1046194622E7D8
:1011300050EA410618BF52EA43067FF4C5AE50EAB2
:1011400041047FF40DAF52EA43057FF4EBAE12E7A2
:101150004FF0FF3C06E000BF4FF0010C02E000BF83
:101160004FF0010C4DF804CD4FEA410C7FEA6C5C66
:101170004FEA430C18BF7FEA6C5C1BD001B050EA09
:10118000410C0CBF52EA430C91EA030F02BF90EAF4
:10119000020F0020704710F1000F91EA030F58BFB3
:1011A000994208BF90422CBFD8176FEAE37040F015
:1011B000010070474FEA410C7FEA6C5C02D150EAB3
:1011C000013C07D14FEA430C7FEA6C5CD6D152EA6E
:1011D000033CD3D05DF8040B704700BF8446104633
:1011E00062468C461946634600E000BF01B5FFF732
:1011F000B7FF002848BF10F1000F01BD4DF808ED02
:10120000FFF7F4FF0CBF012000205DF808FB00BFD2
:101210004DF808EDFFF7EAFF34BF012000205DF82C
:1012200008FB00BF4DF808EDFFF7E0FF94BF012079
:1012300000205DF808FB00BF4DF808EDFFF7CEFF7A
:1012400094BF012000205DF808FB00BF4DF808EDB9
:10125000FFF7C4FF34BF012000205DF808FB00BF8A
:101260004FEA410C7FEA6C5C02D150EA013C0AD1A2
:101270004FEA430C7FEA6C5C02D152EA033C02D194
:101280004FF0000070474FF0010070474FEA4102F5
:1012900012F5001215D211D56FF47873B3EB6252C8
:1012A00012D94FEAC12343F0004343EA505311F0EF
:1012B000004F23FA02F018BF404270474FF0000081
:1012C000704750EA013005D111F0004008BF6FF0BF
:1012D000004070474FF00000704700BF0348044BC8
:1012E000834202D0034B03B118477047A80900207E
:1012F000A8090020000000000548064B1B1AD90F62
:1013000001EBA301491002D0034B03B1184770470A
:10131000A8090020A80900200000000010B5064C14
:10132000237843B9FFF7DAFF044B13B10448AFF356
:1013300000800123237010BDA809002000000000D8
:10134000481A010808B5054B1BB105490548AFF31C
:101350000080BDE80840FFF7CFBF00BF00000000DD
:10136000AC090020481A01084FF090431B6913F0A4
:10137000100F15D100B585B001230370474B04222F
:101380009A62474A1368ADF804301B0C8DF806309A
:101390005368ADF800301B0C8DF80230002131E0AD
:1013A000002303700320704733B93E4B9B6813F052
:1013B0000203F9D00123F7E701F1010C5FFA8CFC7D
:1013C00001F110026A4412F80CEC364A82F80CE083
:1013D00000E03AB1334A926812F08002F9D01A461E
:1013E000F7E732B92F4A926812F00102F9D01A4693
:1013F000F7E70231C9B22B4B1A7B0CF110036B4497
:1014000003F8042C0229D0D99DF80D209DF80E3048
:1014100043EA02231B11838000212DE033B9214BC5
:101420009B6813F00203F9D00123F7E701F1010CE7
:101430005FFA8CFC01F110026A4412F810EC194AB0
:1014400082F80CE000E03AB1164A926812F080028D
:10145000F9D01A46F7E732B9124A926812F001023F
:10146000F9D01A46F7E70231C9B20E4B1A7B0CF1DC
:1014700010036B4403F8082C0229D0D99DF80920E9
:101480009DF80A3043EA02231B114380034B0422D8
:101490009A61002005B05DF804FB00BF000C004815
:1014A000601A0108003C004000B583B04FF0904343
:1014B00040229A6103F5406304229A616846FFF76F
:1014C00053FF9DF80030002BF8D0BDF80230B3F583
:1014D000966F08D2BDF80420B2F5577F03D340F2CF
:1014E00066318A420DD9B3F5966F14D9BDF8043030
:1014F000B3F5577F13D340F26632934206D90020EA
:101500000AE008480AF062FA022005E006480AF0FC
:101510005DFA012000E0002003B05DF804FB00202C
:10152000FAE700BF681A0108701A010800B587B011
:101530008DF81720FF230293012301930DF1170269
:1015400000920A460146054806F0C4FB10B907B0F0
:101550005DF804FB02F060FCF9E700BF040E002018
:1015600008B5042219212020FFF7E0FF50220121B5
:101570002020FFF7DBFF002202212020FFF7D6FF0B
:10158000002208212020FFF7D1FF3E220421202045
:10159000FFF7CCFF122200212020FFF7C7FF1822FF
:1015A00017212020FFF7C2FF022218212020FFF779
:1015B000BDFF1B2226212020FFF7B8FF9022272104
:1015C0002020FFF7B3FF90222A212020FFF7AEFF53
:1015D00080222B212020FFF7A9FF00222D2120208F
:1015E000FFF7A4FF00221B212020FFF79FFF00220E
:1015F0001A212020FFF79AFFFF2203212020FFF766
:1016000095FF882209212020FFF790FF50220A2110
:101610002020FFF78BFF80220B212020FFF786FF81
:101620000C2211462020FFF781FF02220D212020ED
:10163000FFF77CFF802210212020FFF777FF802218
:1016400011212020FFF772FF24222E212020FFF7F6
:101650006DFF24222F212020FFF768FF2422302154
:101660002020FFF763FF242231212020FFF75EFFB7
:101670003C2204212020FFF759FF002219212020BD
:10168000FFF754FF002203212020FFF74FFF002225
:1016900002212020FFF74AFF08BD00002DE9F0419C
:1016A00084B0039102920193BDF90C30002BC0F27B
:1016B000C4810546A34A1288934280F2BE81BDF9D7
:1016C0000E100029C0F2B9819F480088814280F243
:1016D000B481BDF90840002CC0F2AF81A24240F3B2
:1016E000AC81BDF90AC0BCF1000FC0F2A681604513
:1016F00040F3A381BDF904C0BCF1000FC0F29D818D
:10170000624540F39A81BDF90660002EC0F29581D2
:10171000B04240F39281BDF92870002FC0F28D8154
:10172000BA4240F38A81BDF92A20002AC0F285819D
:10173000904240F3828123445B10314449100F2DC5
:101740006DD8DFE805F0086C6C6C6C226C6C6C6C0E
:101750003A6C6C6C6C549CB203398EB2E01C31460E
:1017600080B203F06BFA08B1284673E13146204697
:1017700003F064FA0028F7D1E01E314680B203F08E
:101780005DFA0028F0D1042064E1033B9CB28DB2E5
:10179000E91E89B2204603F051FA60B92946204675
:1017A00003F04CFA38B9E91C89B2204603F046FA36
:1017B000002800F0548102204CE19CB203318DB22C
:1017C000E01E294680B203F039FA08B1012041E158
:1017D0002946204603F032FA0028F7D1E01C2946BA
:1017E00080B203F02BFA0028F0D1042032E1033359
:1017F0009CB28DB2E91E89B2204603F01FFA60B98F
:101800002946204603F01AFA38B9E91C89B2204665
:1018100003F014FA002800F0248103201AE16A1E64
:10182000D2B2032A49D9AA1FD2B2032A40F28E802B
:10183000A5F10B02D2B2032A00F2C6809CB28DB28F
:10184000EE1CB6B2E01E314680B203F0F7F9071E77
:1018500018BF01273146204603F0F0F9002818BFD1
:1018600001370334A4B23146204603F0E7F90028DB
:1018700018BF01373146204603F0E0F9061E18BFB5
:1018800001262946204603F0D9F9002818BF013661
:10189000E91E89B2204603F0D1F9002818BF0136AD
:1018A000B74200F2F080C0F0F080002F40F0EF80EF
:1018B000002E00F0EE800520CCE09CB28DB2EF1E31
:1018C000BFB2E01C394680B203F0B8F9B0F10008AD
:1018D00018BF4FF001083946204603F0AFF9002841
:1018E00018BF08F10108033CA4B23946204603F0B2
:1018F000A5F9002818BF08F10108E91C89B22046A3
:1019000003F09CF9061E18BF01262946204603F065
:1019100095F900280CBF3546751C3946204603F062
:101920008DF9002818BF0135A84500F29C80C0F051
:101930009C80B8F1000F40F09A80002D00F0998053
:10194000052087E07E0200207C0200209CB2E51E7C
:10195000ADB21FFA81F808F10307BFB23946284635
:1019600003F06CF9061E18BF01264146284603F015
:1019700065F9002818BF0136A8F1030189B228468D
:1019800003F05CF9002818BF01363946284603F0F9
:1019900055F9051E18BF01253946204603F04EF9BA
:1019A000002818BF0135E01C394680B203F046F923
:1019B000002818BF0135AE425DD85ED3002E5ED13F
:1019C000002D5ED0052045E09CB2E61CB6B28DB27B
:1019D000E91C89B2304603F031F9071E18BF012710
:1019E0002946304603F02AF9002818BF0137033D85
:1019F000ADB22946304603F021F9002818BF01375F
:101A00002946304603F01AF9061E18BF012629465A
:101A1000204603F013F9002818BF0136E01E2946BE
:101A200080B203F00BF9002818BF0136B74232D854
:101A300033D3A7BBAEB305200CE0002B33DDBDF9DB
:101A40000E30002B31DDBDF92820194B1B889A423E
:101A500003DA012004B0BDE8F0810320FAE7042096
:101A6000F8E70420F6E70020F4E70220F2E705207B
:101A7000F0E70420EEE70220ECE70120EAE705208A
:101A8000E8E70420E6E70120E4E70320E2E7052099
:101A9000E0E70420DEE70320DCE70020DAE70520AA
:101AA000D8E70420D6E70220D4E70020D2E700BF21
:101AB0007E02002038B505460C46817A13290DD8E0
:101AC000032C0FD8022C1FD2012C22D8AB7A0A2B60
:101AD00016D9C3F11E03DBB2AB7238BD0F4809F053
:101AE00015FFEDE7052C14D1AA7A0A320C4B83FBC3
:101AF0000213DB1003EB8303A2EB8303AB72ECE76F
:101B0000C3F10A03DBB2E7E7AB7AC3F11403AB72AC
:101B1000E3E7044809F0F2FEDFE700BF781A0108A6
:101B200067666666A01A01082DE9F047A4B004466E
:101B3000ADF80C10B0F90C207E490A80B0F90E30D7
:101B40004B8092B29DF90C1012FA81F188B27A4D55
:101B500029809BB29DF90DC013FA8CFC1FFA8CF101
:101B6000A5F802C00725754E3570754E3570A2F187
:101B7000030C0FFA8CFC734DA5F800C0A3F1030E03
:101B80000FFA8EFEA5F802E0033212B26E4D2A80E3
:101B9000A5F802E06D4DA5F800C003331BB26B80C1
:101BA0006B4D2A806B80C31E1BB26A4D2B80A1F146
:101BB000030C0FFA8CFCA5F802C0C21C12B26648D6
:101BC0000280A0F802C0654E3380CB1C1BB273802C
:101BD00063490A804B800B68009333680268296868
:101BE000A07AFFF75BFD042825D1534BB3F9002001
:101BF000A281B3F90230E381237903B3514BB3F9E6
:101C00000040544BB3F9002094421BDB544BB3F912
:101C100000309C4235DC4B4BB3F902304D49B1F9F1
:101C200002108B4230DB4E49B1F902108B422EDD9F
:101C30004FF0000908E001462046FFF73BFF24B0C3
:101C4000BDE8F0874FF000095FFA89F7454B1F7038
:101C50003D4BB3F90060B2421CDC414BB3F900309C
:101C60009E4236DC384BB3F902303A49B1F90210E2
:101C70008B4230DB3A49B1F902108B422DDD002056
:101C800009E04FF00009DFE74FF00009DCE74FF013
:101C90000109D9E700205FFA80FE334B83F800E0AA
:101CA0002A4BB3F900C0624519DC2D4BB3F9003063
:101CB0009C4538DC254BB3F902302649B1F90210B6
:101CC0008B4232DB2649B1F902108B422FDD002115
:101CD00006E00020DFE70020DDE70120DBE7002150
:101CE0005FFA81F8214B83F80080194BB3F900505B
:101CF000AA423DDC1A4BB3F900309D4200F3A880A4
:101D0000134BB3F90230DFF84CA0BAF902A05345E7
:101D1000C0F2A080DFF848A0BAF902A0534540F312
:101D20009B80002325E00021DAE70021D8E701218C
:101D3000D6E700BFF0090020EC090020E9090020E7
:101D4000E8090020E4090020E0090020DC09002067
:101D5000D8090020D4090020D0090020CC09002097
:101D6000C8090020C7090020C6090020C5090020B5
:101D70000023DFF8C0A28AF80030484401440B4435
:101D8000012B00F0BA80022B68D0002B7FF457AFF4
:101D9000944200F39C81A84BB3F90210A74BB3F90E
:101DA0000230994200F39381A54BB3F900309D4274
:101DB0000DDBA44AB2F90220A349B1F902108A420C
:101DC00005DB9F48B0F90200824240F30C819D4A36
:101DD000B2F902109A4AB2F90220914202DB9D4206
:101DE00080F23C819142FFF62AAF984AB2F9002076
:101DF0009542FFF624AF9D423FF721AFADF85C203E
:101E0000934BB3F90230ADF85E308B4C17992068D4
:101E100001F064F98B4B19688C4B186801F05EF97E
:101E2000864BB3F90030ADF86030B4F90230ADF84C
:101E30006230884BB3F90030ADF86430824BB3F9AF
:101E40000230ADF866301999189801F047F9F6E6B6
:101E500000238EE700238CE701238AE737B3BEF126
:101E6000000F12D1B8F1000F1CD0774BB3F900303E
:101E7000ADF81430774BB3F90230ADF81630714B32
:101E80001968059801F02AF9D9E6ADF810C06F4B32
:101E9000B3F90230ADF812306A4B1968049801F0BA
:101EA0001DF9CCE66C4809F029FDC8E6BEF1000F2B
:101EB0000FD1B8F1000F1CD0ADF81C60624BB3F924
:101EC0000230ADF81E3007995B4B186801F006F937
:101ED000B5E65E4BB3F90030ADF818305C4BB3F9A2
:101EE0000230ADF81A300699534B186801F0F6F835
:101EF000A5E6594809F002FDA1E6BFB9BEF1000F01
:101F00003AD1B8F1000F4AD0ADF830604E4CB4F978
:101F10000230ADF832300C99474B186801F0DEF80A
:101F2000484B1968206801F0D9F888E6444DB5F9A6
:101F30000030ADF82030404BB3F90230ADF822301C
:101F4000404C2168089801F0C9F8414BB3F90030C2
:101F5000ADF824303D4BB3F90230ADF82630B5F979
:101F60000030ADF82830B4F90230ADF82A300A99C3
:101F7000099801F0B3F862E6ADF82C20344BB3F9C0
:101F80000230ADF82E300B992B4B186801F0A6F8F3
:101F90002C4B19682D4B186801F0A0F84FE6ADF8EE
:101FA00034202B4BB3F90230ADF83630224C0D996A
:101FB000206801F093F8214BB3F90030ADF83830C8
:101FC000B4F90230ADF83A30224BB3F90030ADF835
:101FD0003C301D4BB3F90230ADF83E300F990E98EE
:101FE00001F07CF82BE6ADF84060ADF84210124CE1
:101FF0001099206801F072F8B4F90030ADF844305F
:102000000E4BB3F90230ADF84630104BB3F9003047
:10201000ADF848300E4BB3F90230ADF84A301299A2
:10202000119801F05BF8074B1968074B186801F02D
:1020300055F804E6C4090020E4090020D409002072
:10204000C8090020D8090020D0090020CC090020B0
:10205000DC090020E0090020B01A01088D4EB6F915
:102060000030ADF84C308C4BB3F90230ADF84E3047
:102070008A4C1399206801F031F8894BB3F900308C
:10208000ADF85030B4F90230ADF85230854BB3F9A9
:102090000030ADF85430844CB4F90230ADF856300D
:1020A0001599149801F01AF8804D2968306801F0EC
:1020B00015F8B5F90030ADF858307D4BB3F9023062
:1020C000ADF85A301699206801F008F8B7E5944247
:1020D0006BDB724BB3F90210714BB3F902309942CA
:1020E00063DC724BB3F90220714BB3F902309A42B0
:1020F00004DB6F49B1F900108D422ADA9A42FFF6EB
:102100009EAD644BB3F900309D42FFF698AD684B2D
:10211000B3F900309D423FF792ADADF87460624B69
:10212000B3F90230ADF876301D995C4B186800F0B9
:10213000D5FF594BB3F90030ADF87830554BB3F9B2
:102140000230ADF87A30594B19681E9800F0C6FF7E
:1021500075E5554C2168514B186800F0BFFFB4F984
:102160000030ADF868304F4BB3F90230ADF86A304B
:102170004E4C21681A9800F0B1FF474BB3F900307C
:10218000ADF86C30434BB3F90230ADF86E30484BCC
:10219000B3F90030ADF87030B4F90230ADF87230F8
:1021A0001C991B9800F09AFF49E594423FF747AD10
:1021B0003A4BB3F902203A4BB3F902309A42FFF698
:1021C0003EAD3B4BB3F900309D420CDB374AB2F9D0
:1021D00002203549B1F902108A4204DB3449B1F9D1
:1021E00002108A4237DD314AB2F90210304AB2F9A0
:1021F00002209142FFF623AD9D42FFF620AD254D12
:10220000B5F90030ADF88430234BB3F90230ADF8A6
:1022100086302199214B186800F060FF234C21681B
:10222000286800F05BFF204BB3F90030ADF8883030
:102230001C4BB3F90230ADF88A30B4F90030ADF878
:102240008C301B4BB3F90230ADF88E3023992298B5
:1022500000F044FFF3E40F4BB3F90030ADF87C30ED
:102260000D4BB3F90230ADF87E301F990B4B186857
:1022700000F034FF0C4BB3F90030ADF88030094B5F
:10228000B3F90230ADF88230084B1968209800F09D
:1022900025FFD4E4CC090020DC090020E40900205B
:1022A000D4090020E0090020D0090020D80900202E
:1022B000C809002010B584B00446053000F046F986
:1022C000ADF80C0003992046FFF72EFC23790BB9DB
:1022D00004B010BDA089E18903390338044B009391
:1022E00007231A4689B280B200F0D4FEF0E700BF9F
:1022F000C81A010810B5002400E00134092C0FDCD5
:1023000004EB84029300074AD358002BF5D004EB6A
:102310008402930003481844817AFFF7CBFFECE76F
:1023200010BD00BFF80900200023092B21D830B4CC
:1023300003EB830290000F4942180024C2F80540C5
:102340005472142595724FF6FF7CA2F80CC0A2F8C7
:102350000EC04FF0FF3515610C5003EB8300820077
:10236000114401220A711344DBB2092BE0D930BCBD
:1023700070477047F8090020B1F90E308381B1F938
:102380001030C3810B7B8372026101604B78013B8B
:102390004B70024A1378013313707047F409002020
:1023A00043783BBB704703EB830301EB830604F0E8
:1023B00003F8024629463046FFF7DEFF0025357157
:1023C00009E004EB8402134B03EB8203997A304655
:1023D000FFF770FF01350B2DF3DD0F4941F2883017
:1023E00002F060FE04EB84040A4B03EB8403012239
:1023F0001A7170BD70B505460023092BF9D81C462B
:1024000003EB8302034951F82220002ACBD0013389
:10241000DBB2F2E7F8090020C4AB050800B583B0D1
:10242000036823B15A7801325A700023036083890C
:10243000C1890339D81E074B009307231A4689B276
:1024400080B200F027FE044A1378013B137003B0FA
:102450005DF804FB484A0608F409002038B503F08B
:10246000ABFF0546002401E00134E4B2092C19D881
:1024700004EB84030C4A52F82330002BF4D004EB15
:102480008402094B03EB82031B69EB1A42F21072C0
:102490009342E9D904EB8400034B03EB8000FFF780
:1024A000BDFFE1E738BD00BFF809002070B5B0F905
:1024B0000EE01FFA8EFEB0F91050ADB2B1F90CC0AB
:1024C0001FFA8CFCB1F90E40A4B2ACEB0E031BB2A8
:1024D000621B12B2002BB8BF5B429BB2002AB8BF8E
:1024E000524292B29B1A1BB2002BB8BF5B429BB206
:1024F0002D2B28D88268037B03EB430302EB830375
:102500009868002301E00133DBB24268934218DA95
:10251000ACF10201026802EB830632F92320724417
:102520009142F0DC0CF102018A42ECDCA11EB6F90A
:1025300002202A449142E6DCA11C8A42E3DC01200D
:1025400000E0002070BD0020FCE7000000B583B073
:10255000434AA2FB013202F0FC0303EB9203CB1AC5
:10256000DBB29A1ED2B2012A13D9C25C013202F048
:10257000010248BF5242D2B2C2543A480270384AAD
:10258000A2FB01218908032964D8DFE801F0122E9B
:10259000405210F803C00CF1010C334A82FB0CE2EC
:1025A00002EB4202ACEB0202D2B2C2542D480270DE
:1025B000E5E72C4A11782D4A03EB43030B4412F94B
:1025C000131002EB430292F901308DF804108DF8DC
:1025D000053000209DF8043063F307009DF80530B6
:1025E00063F30F2003B05DF804FB1E4A11781F4A05
:1025F00003EB43030B4402EB430191F9011012F882
:1026000013308DF804105B428DF80530E1E7154A70
:102610001178164A03EB43030B4412F8131002EB34
:10262000430253784A428DF804205B428DF805300E
:10263000CFE70C4A12780D4903EB4303134401EB37
:102640004302527811F9131053428DF804308DF87B
:102650000510BEE700238DF804308DF80530B8E78B
:10266000CDCCCCCCC00A002056555555FC280108CD
:1026700010B504464FF41672002109F0F7F9002353
:10268000C4F8593284F85D3284F858324FF6FF723C
:10269000A4F86022C4F86C32A4F8643284F85E3284
:1026A00010BD000090F85E3203B1704770B584B081
:1026B00004462C492C4806F04FFF28B9294B1B68CB
:1026C000C3F30B03052B01D904B070BDD4F86832F5
:1026D0001E7976085D796D082249234806F03CFF93
:1026E0000028F1D11F49214B1A880B68B3FBF2F087
:1026F00002FB1033A4F862321B4806F02DFF0028BD
:10270000E2D11B4B1A88174B1B68B3FBF2F102FB9B
:1027100011339BB2A4F86432B4F86222911B09B25F
:10272000ADF80010581B00B2ADF80200324412B2EE
:10273000ADF80420ADF80600ADF808102B441BB22C
:10274000ADF80A30ADF80C20ADF80E30039B029ABC
:102750000199009802F018FB0028B5D1012384F8F4
:102760005E32B1E7D40A0020600D00207E02002016
:102770007C02002090F85E32012B00D0704700B53B
:1027800083B0B0F862C2D0F868321A79B0F8641237
:102790005B79074800680090A1EB5301ACEB520055
:1027A00089B280B200F076FC03B05DF804FB00BF94
:1027B0007002002090F85E32012B68D12DE9F043C1
:1027C00083B0D0F868329E684FF0000E08E04FF4F6
:1027D0007843A0F8603244E00EF1010E5FFA8EFEFD
:1027E00073689E4550DAB0F86282336803EB8E025C
:1027F00033F82E3043449BB2254C2380B0F86472EA
:1028000054883C44A4B2234A1480B1F90E500A7B88
:1028100002EB4202D1F808C00CEB820C9CF80420B9
:102820004FEA5209A5EB52029342D5DB4D44AB422D
:10283000D2DAB1F910209CF805305D08A2EB530301
:102840009C42C9DB2A449442C6DA022380F85E32F5
:10285000C0F86C12104B9942B9D04FF4FC63A0F849
:102860006032A8F10803ADF80030A7F10803ADF815
:10287000023008F10808ADF804800837ADF806709A
:102880000199009800F02AFC03B0BDE8F08370477E
:10289000D20A0020D00A00209C020020F8B50D4684
:1028A000174690F858629B4CA4FB0634A408032CEE
:1028B00000F23C81DFE814F004004E009800E600CE
:1028C000002E36D0944C218062801146284602F0BA
:1028D000B5F9924D28702088B4F90210023089B2FF
:1028E00080B202F0ABF98E4B1870B4F90000618829
:1028F000023189B280B202F0A1F90446894B187006
:102900002B78002B00F0178120B1854B1B78002B12
:1029100040F0138124B1824B1B78002B00F00F8113
:10292000002C40F00E817E4B1B78002B48D10524F3
:1029300046E01146284602F081F908B105243FE03F
:10294000681C394680B202F079F908B9042437E0EE
:10295000052435E0052E35D0511C6F4E3580718031
:1029600089B2284602F06AF96C4D28703088B6F9B1
:102970000210023089B280B202F060F9684B187020
:10298000B6F900007188023989B280B202F056F9B6
:10299000644B18702B78002B00F0D58020B1604B71
:1029A0001B78002B40F0D18020B15D4B1B78002BB1
:1029B00000F0CD80002840F0CC80594B1B788BB1C3
:1029C0002046F8BD1146284602F038F908B13446D1
:1029D000F6E7791C89B2284602F030F90028F6D1D2
:1029E0000426F4E70524EBE70A2E36D0481C511CD8
:1029F000494C2080618089B280B202F01FF9474DB6
:102A000028702088B4F90210023889B280B202F02E
:102A100015F9434B1870B4F900006188023989B286
:102A200080B202F00BF93F4B18702B78002B00F0AE
:102A3000928020B13A4B1B78002B40F08E8020B161
:102A4000374B1B78002B00F08A80002840F08980EB
:102A5000334B1B78A3B10124B2E70137BFB2481C46
:102A6000394680B202F0EAF808B10524A8E73946F1
:102A7000284602F0E3F808B90424A1E705249FE7FB
:102A800005249DE70F2E32D0481C234D28806A80F4
:102A9000114680B202F0D2F8204E30702888B5F985
:102AA0000210023889B280B202F0C8F81C4B1870CC
:102AB000B5F900006988023189B280B202F0BEF82F
:102AC000184B18703378002B4DD018B1144B1B786D
:102AD000002B4AD120B1124B1B78002B3FF470AF72
:102AE000002844D10E4B1B78F3B1044668E701354A
:102AF000ADB2511C89B2284602F0A0F808B10524F5
:102B00005EE73946284602F099F808B9042457E7E9
:102B1000052455E7CDCCCCCCCC0A0020C80A002037
:102B2000C70A0020C60A0020052449E7114808F01A
:102B3000E5FE052444E7042442E7052440E7022497
:102B40003EE705243CE704243AE7052438E702245D
:102B500036E7052434E7042432E7052430E703246C
:102B60002EE705242CE704242AE7052428E705247A
:102B700026E700BFFCF6010808B503290DD8022995
:102B80001FD2012924D890F858320A2B15D9C3F145
:102B90001E03DBB280F8583208BD052918D190F821
:102BA00058220A320C4B83FB0213DB1003EB830326
:102BB000A2EB830380F85832EEE7C3F10A03DBB2DD
:102BC000E8E790F85832C3F1140380F85832E3E78D
:102BD000024808F093FEDFE767666666A01A010800
:102BE00090F85E32022B28D170B50646B0F86052DC
:102BF000142401E00134E4B2952C1DD814F0020F26
:102C0000F8D136F9240080B206EB8403B3F9021040
:102C100089B24B1C421C9BB292B200F00DFA2846BE
:102C200000F0C0F9284600F0BDF9284600F0BAF9D6
:102C3000284600F0B7F9DDE770BD704738B50546A6
:102C4000142401E00134E4B2952C21D814F0020FD1
:102C5000F8D135F9240080B205EB8403B3F90210F2
:102C600089B24B1C421C9BB292B200F0E5F94FF6C0
:102C7000FF7000F097F94FF6FF7000F093F94FF6F0
:102C8000FF7000F08FF94FF6FF7000F08BF9D9E775
:102C900038BD000090F85E32022B00D070472DE95D
:102CA000F041044600F259260023C0F8593233712E
:102CB000FFF7C4FFD4F86C32B3F90E202280B3F9C9
:102CC000102062801B7B84F85832012738E02046B0
:102CD000FFF752FF94F858123046FFF737FC2A4BA3
:102CE000188034F8250093F9001004EB8502B2F83F
:102CF00002C093F901201CFA82F210FA81F192B21B
:102D000089B22046FFF7CAFD204B18701F4B197877
:102D10000429DCD134F825101B4A92F9003011FA4D
:102D200083F324F8283004EB8505698892F9013093
:102D300011FA83F304EB8808A8F802300137FFB2D8
:102D4000952F1ED894F858123046FFF7FFFB0E4B14
:102D50001880B8467D1E34F8250093F9001004EB66
:102D60008502B2F802C093F901201CFA82F210FA2F
:102D700081F192B289B22046FFF790FD034B1870A3
:102D8000C4E7BDE8F08100BFC40A0020C20A0020E9
:102D900038B5054614241FE035F9240080B205EB50
:102DA0008403B3F9021089B24B1C421C9BB292B24D
:102DB00000F042F94FF6FF7000F0F4F84FF6FF70A4
:102DC00000F0F0F84FF6FF7000F0ECF84FF6FF70EF
:102DD00000F0E8F80134E4B2952CDDD92846FFF77D
:102DE00047FC38BDF8B590F85E32032B40F09B806D
:102DF0000646D0F86C224D4B9A420CD04FF4FC653D
:102E00004B4B1B780D2B09D003EB83046400E4B219
:102E10001434E4B211E04FF47845F1E70024444B58
:102E20001C703046FFF7B4FF20467BE0404B002289
:102E30001A70404876E00134E4B23D4B1A78531CD6
:102E400003EB83035B0027461333A34266DB36F9AB
:102E5000240080B206EB8403B3F9021089B24B1C44
:102E6000421C9BB292B200F0E7F8284600F09AF8B4
:102E7000284600F097F8284600F094F8284600F01D
:102E800091F836F924102B4BB3F90E009A681B7B8E
:102E900003EB430302EB830213794FEA530CA0EBDD
:102EA0005303994212DB604481420FDA06EB870339
:102EB000B3F902C01F4BB3F9100053795A08A0EBC5
:102EC00053039C4502DB10448445AFDB174BB3F939
:102ED0000E009A681B7B03EB430302EB830213791A
:102EE0004FEA530CA0EB53039942A4DB60448142A8
:102EF000A1DA06EB8707B7F902000C4BB3F9101003
:102F000053795A08A1EB5303984294DB1144884249
:102F100091DA074B00221A70044803E00132044B97
:102F20001A700020F8BD0020FCE700BF9C020020C2
:102F3000C10A0020880200204FF090434FF4006245
:102F40009A6170474FF090434FF400629A62704765
:102F50004FF090434FF400429A6170474FF0904316
:102F60004FF400429A62704710B50446FFF7F6FF2F
:102F700000E033B90A4B9B6813F00203F9D0012338
:102F8000F7E7074A147300E032B1054A926812F07D
:102F90008002F9D01A46F7E7FFF7DAFF10BD00BF4D
:102FA000003C004010B50446FFF7C6FF200AFFF7BB
:102FB000DBFFE0B2FFF7D8FF10BD10B50446FFF706
:102FC000C1FF2046FFF7D0FF10BD10B50446FFF744
:102FD000B3FF2046FFF7C8FF10BD10B50C46FFF742
:102FE000ECFFE0B2FFF7F1FF10BD000008B5024BA7
:102FF000187AFFF7E2FF08BDD80A00200D4A93684F
:1030000023F4FF4323F0700343F4025343F010030F
:103010009360D2F8003823F0FF0343F00F03C2F8A7
:103020000038936843F002039360936843F0080309
:1030300093607047000002402DE9F04107460D46BD
:1030400016461C46DFF8488098F80A00FFF7B5FFDF
:10305000380AFFF7BAFFF8B2FFF7B7FF300AFFF7F9
:10306000B4FFF0B2FFF7B1FF98F80C00FFF7A5FF2F
:10307000280AFFF7AAFFE8B2FFF7A7FF200AFFF729
:10308000A4FFE0B2FFF7A1FFFFF7B0FFBDE8F081BA
:10309000D80A00202DE9F04115469846069F82186F
:1030A00092B2CB189BB2013B013A9BB292B2FFF7AE
:1030B000C3FFFFF741FF002609E006FB054237F892
:1030C0001200FFF76FFF0134A542F6DC0136B04570
:1030D00001DD0024F8E7BDE8F081000010B584B000
:1030E00003900291BDF80820BDF80C00121A92B2AC
:1030F0000132BDF80A30BDF80E105B1A9BB20133E5
:10310000034C00949BB292B2FFF7C4FF04B010BD11
:10311000484A060870B505460E4B1A885B88013B85
:10312000013A9BB292B200210846FFF785FFFFF7F4
:1031300003FF002607E02846FFF734FF0134B4F50B
:10314000A07FF8DB0136B6F5F07F01DA0024F6E760
:1031500070BD00BFD80A002008B51E4B2A225A8134
:103160002B229A812C221A8103280ED8DFE800F046
:10317000020E1A26174B4FF4A0721A804FF4F07209
:103180005A8048213620FFF728FF08BD114B4FF425
:10319000F0721A804FF4A0725A8028213620FFF76F
:1031A0001CFFF2E70B4B4FF4A0721A804FF4F07241
:1031B0005A8088213620FFF710FFE6E7054B4FF4D1
:1031C000F0721A804FF4A0725A80E8213620FFF77F
:1031D00004FFDAE7D80A002008B5F020FFF7EDFE7B
:1031E000C320FFF7F2FEF020FFF7E7FE9620FFF77F
:1031F000ECFE3620FFF7E1FE6820FFF7E6FE3A20FE
:10320000FFF7DBFE0520FFF7E0FEB020FFF7D5FE5D
:103210008020FFF7DAFEB620FFF7CFFE0020FFF791
:10322000D4FE0220FFF7D1FEB520FFF7C6FE022034
:10323000FFF7CBFE0320FFF7C8FE0020FFF7C5FE17
:103240000420FFF7C2FEB120FFF7B7FE8020FFF792
:10325000BCFE1020FFF7B9FEB420FFF7AEFE002041
:10326000FFF7B3FEB720FFF7A8FEC620FFF7ADFEBD
:10327000C520FFF7A2FE2420FFF7A7FEE420FFF7FA
:103280009CFE3120FFF7A1FEE820FFF796FE4020CC
:10329000FFF79BFE8A20FFF798FE0020FFF795FEC0
:1032A0000020FFF792FE2920FFF78FFE1920FFF77D
:1032B0008CFEA520FFF789FE3320FFF786FEC22093
:1032C000FFF77BFEA720FFF778FEE020FFF775FEF3
:1032D000F020FFF77AFE0920FFF777FE1320FFF7B3
:1032E00074FE1220FFF771FE1220FFF76EFE2B20F6
:1032F000FFF76BFE3C20FFF768FE4420FFF765FEFA
:103300004B20FFF762FE1B20FFF75FFE1820FFF740
:103310005CFE1720FFF759FE1D20FFF756FE212007
:10332000FFF753FEE120FFF748FEF020FFF74DFEC8
:103330000920FFF74AFE1320FFF747FE0C20FFF796
:1033400044FE0D20FFF741FE2720FFF73EFE3B2005
:10335000FFF73BFE4420FFF738FE4D20FFF735FE18
:103360000B20FFF732FE1720FFF72FFE1720FFF785
:103370002CFE1D20FFF729FE2120FFF726FE362018
:10338000FFF71BFEEC20FFF720FEF020FFF715FEF5
:10339000C320FFF71AFEF020FFF70FFE6920FFF7AA
:1033A00014FE1320FFF709FE1120FFF706FE292067
:1033B000FFF703FE0120FFF7CFFE4FF6FF70FFF788
:1033C000A9FE08BDF0B583B0AB4E304603F066FDF4
:1033D000FF21304603F08AF9304603F033FA85B214
:1033E000ADF80450304603F059FDFF21304603F09C
:1033F0007DF9304603F026FA84B2ADF80640304637
:1034000003F030FEA4F2267424B2A5F2EA652DB2D0
:10341000002C08DD2046FDF761F89849FCF7F0FE26
:10342000FDF726F904B2002D08DD2846FDF756F811
:103430009349FCF7E5FEFDF71BF905B204F28F1383
:103440009BB240F21E32934206D8B5F5C87F03DA2C
:1034500015F5C87F00F3E480002C76DB002D37DB08
:103460002846FDF73BF806462046FDF737F80746A5
:103470008449FCF7C5FE01463046FDF7DBF800281D
:1034800040F0D08080493846FCF7BAFE014630460D
:10349000FDF7D0F8002840F0C880AC4280F2C78029
:1034A0007A493846FCF7ACFE01463046FDF7C2F8D3
:1034B000002840F0BE8076493846FCF7A1FE014660
:1034C0003046FDF7B7F8002800F0B5800420AAE0E8
:1034D0002846FDF703F805462046FCF7FFFF0446A3
:1034E0006C49FCF78DFE01462846FDF7ADF8002833
:1034F00040F0A38068492046FCF782FE014628463A
:10350000FDF7A2F8002840F09A8004F10041284617
:10351000FDF79AF8002840F0948060492046FCF7B7
:103520006FFE01462846FDF78FF8002840F08B809B
:103530005B492046FCF764FE01462846FDF784F807
:10354000002800F0828010206DE0002D37DB284637
:10355000FCF7C4FF05462046FCF7C0FF04464D4972
:10356000FCF74EFE01462846FDF764F800286ED1B0
:1035700049492046FCF744FE01462846FDF75AF823
:10358000002866D104F100412846FDF753F80028D1
:1035900061D142492046FCF733FE01462846FDF73B
:1035A00049F8002859D13E492046FCF729FE01463A
:1035B0002846FDF73FF8002851D0062033E0284682
:1035C000FCF78CFF07462046FCF788FF064631498A
:1035D000FCF716FE01463846FDF736F8002840D1C4
:1035E00029493046FCF70CFE01463846FDF72CF819
:1035F000002838D1AC4238DD24493046FCF700FEC3
:1036000001463846FDF720F888BB21493046FCF7D3
:10361000F7FD01463846FDF717F850B30E2002E0DB
:10362000142000E0002003B0F0BD0120FBE70220E1
:10363000F9E70320F7E70520F5E70020F3E713207B
:10364000F1E71220EFE71120EDE70F20EBE70A206A
:10365000E9E70920E7E70820E5E70720E3E7052099
:10366000E1E70A20DFE70B20DDE70C20DBE70D2098
:10367000D9E70F20D7E700BFBC0E002052B85E3F4D
:1036800014AE473F0AD7A33E48E13A3F295CAF3F1B
:10369000E17A44400AD7A3BE48E13ABF295CAFBFF4
:1036A000E17A44C0F0B583B0AB4E304603F0F6FB90
:1036B000FF21304603F01AF8304603F0C3F885B214
:1036C000ADF80450304603F0E9FBFF21304603F02B
:1036D0000DF8304603F0B6F884B2ADF80640304637
:1036E00003F0C0FCA4F5E66424B2A5F5DC652DB2B8
:1036F000002C08DD2046FCF7F1FE9849FCF780FD20
:10370000FCF7B6FF04B2002D08DD2846FCF7E6FE04
:103710009349FCF775FDFCF7ABFF05B204F28F137C
:103720009BB240F21E32934206D8B5F5C87F03DA49
:1037300015F5C87F00F3E480002C76DB002D37DB25
:103740002846FCF7CBFE06462046FCF7C7FE074698
:103750008449FCF755FD01463046FCF76BFF002815
:1037600040F0D08080493846FCF74AFD014630469B
:10377000FCF760FF002840F0C880AC4280F2C780B0
:103780007A493846FCF73CFD01463046FCF752FFCB
:10379000002840F0BE8076493846FCF731FD0146EE
:1037A0003046FCF747FF002800F0B5800420AAE06F
:1037B0002846FCF793FE05462046FCF78FFE04469C
:1037C0006C49FCF71DFD01462846FCF73DFF00282B
:1037D00040F0A38068492046FCF712FD01462846C8
:1037E000FCF732FF002840F09A8004F1004128469F
:1037F000FCF72AFF002840F0948060492046FCF73F
:10380000FFFC01462846FCF71FFF002840F08B8094
:103810005B492046FCF7F4FC01462846FCF714FF00
:10382000002800F0828010206DE0002D37DB284654
:10383000FCF754FE05462046FCF750FE04464D4971
:10384000FCF7DEFC01462846FCF7F4FE00286ED1AA
:1038500049492046FCF7D4FC01462846FCF7EAFE1D
:10386000002866D104F100412846FCF7E3FE002859
:1038700061D142492046FCF7C3FC01462846FCF7CB
:10388000D9FE002859D13E492046FCF7B9FC014633
:103890002846FCF7CFFE002851D0062033E028460A
:1038A000FCF71CFE07462046FCF718FE0646314989
:1038B000FCF7A6FC01463846FCF7C6FE002840D1BE
:1038C00029493046FCF79CFC01463846FCF7BCFE13
:1038D000002838D1AC4238DD24493046FCF790FC52
:1038E00001463846FCF7B0FE88BB21493046FCF75C
:1038F00087FC01463846FCF7A7FE50B30E2002E0D5
:10390000142000E0002003B0F0BD0120FBE70220FE
:10391000F9E70320F7E70520F5E70020F3E7132098
:10392000F1E71220EFE71120EDE70F20EBE70A2087
:10393000E9E70920E7E70820E5E70720E3E70520B6
:10394000E1E70A20DFE70B20DDE70C20DBE70D20B5
:10395000D9E70F20D7E700BF500E00200AD7633FFA
:10396000B81E453F0AD7A33E48E13A3F295CAF3F26
:10397000E17A44400AD7A3BE48E13ABF295CAFBF11
:10398000E17A44C02DE9F0418AB000240594069400
:10399000079408940994494BDA6C42F00402DA6403
:1039A000DA6C02F004020092009ADA6C42F0200213
:1039B000DA64DA6C02F020020192019ADA6C42F0C9
:1039C0000102DA64DA6C02F001020292029ADA6C05
:1039D00042F00202DA64DA6C02F002020392039A05
:1039E000DA6C42F00802DA64DB6C03F0080304933B
:1039F000049B012248F240014FF0904003F03BFF4E
:103A000022464FF400614FF0904003F034FFDFF89E
:103A1000B08001220421404603F02DFF4FF40053F3
:103A200005934FF488130693079405A9254803F0DE
:103A30002DFE102705970694079405A94FF0904096
:103A400003F024FE48F240030593012506950795EF
:103A50000326089605A94FF0904003F017FE802337
:103A600005930694079505A94FF0904003F00EFECC
:103A70004FF40063059306950794089605A94FF047
:103A8000904003F003FE04230593069507950896DE
:103A900005A9404603F0FAFD05970694079505A988
:103AA000094803F0F3FD22462146282003F04AFC92
:103AB000282003F057FC0AB0BDE8F0810010024056
:103AC000000C0048000800480004004800B583B01E
:103AD0000E4B9A6C42F004029A649A6C02F0040253
:103AE0000192019A9A6C42F001029A649B6C03F075
:103AF00001030093009B002211460D2003F022FCDD
:103B00000D2003F02FFC03B05DF804FB0010024011
:103B1000F0B593B02822002108A807F0A7FF0024E1
:103B20000294039404940594069407942D4B9A6D83
:103B300042F400429A659A6D02F400420192019AA1
:103B4000DA6C42F00402DA64DB6C03F004030093E5
:103B5000009B4FF480630293022703970626079683
:103B6000214D02A9284607F068F84FF4006302933C
:103B70000397049405940694079602A9284607F033
:103B80005CF84FF4805302930397049405940694D1
:103B9000079602A9284607F050F808944FF482735C
:103BA00009934FF4E0630A930B940C944FF4007361
:103BB0000D9318230E930F941094072311930B4C1D
:103BC00008A9204607F07DF8636823F010036360BE
:103BD000636843F008036360236843F04003236095
:103BE00013B0F0BD0010024000080048003C004047
:103BF00000B583B001904FF6FF73012201A903487D
:103C000006F01DFE019803B05DF804FB740D002062
:103C100010B50368714A934207D0714A934266D047
:103C2000704A934200F0D28010BD6F4B1B78022B7C
:103C30000AD0012BF8D16D4B1B78032B4FD06B4B67
:103C40001A786B4B1A70EFE7684B1B78032B0CD07C
:103C5000664B1A78664B1A70664B1B78032B21D083
:103C6000644B1A78644B1A70DEE7614A127893420B
:103C7000EED0624B93F85E32022B05D15F4BD3F846
:103C80006C225F4B9A4203D05D48FEF789FBDFE769
:103C90005A4B032283F85E225A4941F2883001F0E0
:103CA00001FAD5E7544A12789342D9D0534B93F88E
:103CB0005E32022B05D1514BD3F86C22524B9A4203
:103CC00003D05148FEF76CFBCAE74C4B032283F844
:103CD0005E224C4941F2883001F0E4F9C0E7444AE1
:103CE00012789342ABD04848FEF75AFBA7E7102161
:103CF000464803F0B9FD28B93C4B1B78E3B93B4B70
:103D000002221A701021414803F0AEFD01281FD095
:103D100000F038FD01282FD000F034FD002841D1FB
:103D2000344B1B78032B3AD0012B4BD0022B39D1CB
:103D3000304B00221A7035E0022B05D0012BE1D167
:103D40002A4B03221A70DDE7284B03221A70D9E7A9
:103D5000264B1B78032B07D0012B09D0022BD7D180
:103D6000224B00221A70D3E7204B01221A70CFE7B2
:103D70001E4B00221A70CBE71E4B1B781BB91D4B44
:103D800002221A70C8E7022B05D0012BC4D1194BAF
:103D900003221A70C0E7174B03221A70BCE7154BB9
:103DA00001221A7000F0EEFC02287FF43DAF802162
:103DB0004FF0904003F058FD00287FF435AF03F03A
:103DC000D5FA31E70B4B00221A70EBE7104C217843
:103DD000104807F09BFD0023237025E700080040F2
:103DE000000C0040001000402F0F0020E90A0020C6
:103DF000E80A0020E70A0020E60A00200000002070
:103E00009C020020C4AB0508880200200004004882
:103E10002E0F00201CF7010872B6FEE708B5154802
:103E2000154B03604FF4E133436000238360C360AC
:103E300003610C224261836103624362836206F084
:103E4000A7FD70B900210B4806F01BFE58B90021F0
:103E5000084806F03BFE40B9064806F0F3FD30B9CD
:103E600008BDFFF7D9FFFFF7D7FFFFF7D5FFFFF733
:103E7000D3FF00BF740D00200080004000B585B066
:103E800000230193029303931048114A026042F603
:103E9000DF624260836042F20F73C36080238361FC
:103EA00006F0F4F868B900230193039301A90748C9
:103EB00006F0D2F938B9054805F01AFF05B05DF8EB
:103EC00004FBFFF7A9FFFFF7A7FF00BFEC0A0020E4
:103ED0000010004010B58CB0002409940A940B9493
:103EE0002022214601A807F0C1FD25484FF0A0433C
:103EF00003604FF4003343608460C46004610123B5
:103F0000436104228261047744770222026280F8CE
:103F100024308362C462046380F83840C46380F84C
:103F2000404002F08FFA10BB0023099309A91448FE
:103F300003F0BAF8E8B9134B019306230293012367
:103F400003937F230493042305930023069301A97D
:103F50000B4802F07BFC70B90B4B01930C230293CE
:103F600001A9074802F072FC38B90CB010BDFFF788
:103F700053FFFFF751FFFFF74FFFFFF74DFF00BF64
:103F8000BC0E0020000180210002B02500B589B0E0
:103F900020220021684607F069FD2148214B03607B
:103FA0004FF40033436000238360C3600361012248
:103FB000426104218161037743770221016280F825
:103FC00024208262C362036380F83830C36380F8C0
:103FD000403002F037FAE0B9134B00930623019307
:103FE000012302937F230393042304930023059367
:103FF00069460B4802F02AFC68B90C4B00930C236D
:1040000001936946064802F021FC30B909B05DF819
:1040100004FBFFF701FFFFF7FFFEFFF7FDFE00BF08
:10402000500E00200001005002003004040060081F
:1040300008B50548054B03600023436005F06EFAA0
:1040400000B908BDFFF7E8FE600D0020000806502B
:1040500000B589B000230493059306930793019359
:10406000029303931548164A026040F2AF42426041
:1040700083606322C26003618023836106F006F8D7
:10408000A8B94FF48053049304A90C4806F03AF8F9
:1040900078B900230193039301A9084806F0DCF8DE
:1040A00048B9064805F024FE09B05DF804FBFFF7A7
:1040B000B3FEFFF7B1FEFFF7AFFE00BF840B002099
:1040C0000008004000B589B00023049305930693CF
:1040D00007930193029303931548164A026040F236
:1040E000AF424260836040F2E732C26003618023E6
:1040F000836105F0CBFFA8B94FF48053049304A962
:104100000B4805F0FFFF78B900230193039301A941
:10411000074806F0A1F848B9054805F0E9FD09B0DF
:104120005DF804FBFFF778FEFFF776FEFFF774FEFD
:10413000380B0020000C004008B51248124B0360F9
:10414000A3F17963A3F24F2343600023836001222C
:10415000C260036143618361C361036203F05CFD7C
:1041600050B90021074803F061FF38B90021054824
:1041700003F08AFF20B908BDFFF74EFEFFF74CFEA3
:10418000FFF74AFE040E00200078004008B51848EA
:10419000184B03600021416081604FF4005343617C
:1041A00081618162C16145F222630362C160C162C3
:1041B0000163416302230A4605F090FCA0B90E4852
:1041C0000E4B0360032343600123836000214161A0
:1041D000C161C160C16201631023436302230A46C7
:1041E00005F07CFC10B908BDFFF716FEFFF714FEC2
:1041F000C80C002004540140300C0020245401401D
:1042000000B595B03822002106A807F02FFC002346
:10421000019302930393049305934FF4007003F00A
:104220005FFF222306934FF48073099340230A9380
:1042300001220C9202230D930E930F920F221092E3
:1042400011931293139306A804F004F870B90F2386
:10425000019303210291002303930493059301A882
:1042600004F0B0FA20B915B05DF804FBFFF7D4FDF7
:10427000FFF7D2FD00B583B002F082F8FFF7C0FF70
:10428000FFF780FBFFF722FCFFF7C8FDFFF740FCBC
:10429000FFF7F4FDFFF71EFEFFF778FEFFF7C8FEFD
:1042A000FFF7D6FEFFF70EFFFFF746FFFFF76EFFA3
:1042B000FEF7A4FEFDF754F9C82006F047FDFEF70F
:1042C0008BFF642006F042FD064B00934FF48C7385
:1042D0004FF4D27214211E20FEF7DCFE00F02EFAFD
:1042E000FCE700BF84F9010810B58AB0282200213C
:1042F000684607F0BBFB4FF4827301934FF4E06311
:1043000002934FF400730593102306930723099338
:10431000094C6946204606F0D4FC636823F010037C
:104320006360636843F008036360236843F04003FD
:1043300023600AB010BD00BF003C00402DE9F041F1
:104340006B4B02221A7000F0C1FD6A4D284601F045
:10435000ABF9694C204601F0A7F9FDF7E5FF674886
:10436000FEF786F92A7B664B1A70227B654B1A7022
:10437000654E58E004EB8402644B03EB820841462F
:104380005D48FEF793F8F0B102F016F80646404695
:10439000FEF744F8594BD3F86C22574B9A4231D070
:1043A000554801F023FE0134E4B2092C32D82546E9
:1043B00004EB8403554A52F82330002BF3D04E4BC4
:1043C0001B78002BD6D14B4B1B78002BEBD005EB89
:1043D00085054E4B03EB850529464648FEF766F8F2
:1043E0000028E0D001F0E8FF06462846FEF716F860
:1043F000424BD3F86C223F4B9A4207D03D4801F024
:10440000F5FDD0E73D48FEF7C3FCC9E73B48FEF7A2
:10441000BFFCF3E701F0D0FF06F6B83383424AD37E
:10442000C31B0F2B42D93A4A13780133137001F0A2
:10443000C3FF0746FEF7C6FF314D2870FFF732F97C
:10444000304C2070FDF756FFDFF8A88029784046F1
:1044500001F0A0FD284D2178284601F09BFDFDF7D5
:10446000FDFF264C2046FEF71DF92046FEF782F997
:1044700041462046FEF79EF929462046FEF79AF966
:104480002046FEF707FC2046FEF7AAFB2046FEF773
:10449000A9FC044640B101F08FFF06461748FEF71D
:1044A00077FC204601F0A2FD00247EE7381A103088
:1044B00001F088FFB7E7104B1B7823B90D4B1B7831
:1044C0005BB9BDE8F081134B18780130C0B21870A9
:1044D0004FF4FC6100F078FDF3E70F4B18780130E2
:1044E000C0B218704FF4784100F06EFDE9E700BFEC
:1044F0002F0F00209C0200208802002000000020D6
:104500002D0F00202C0F00201445113FF80900202A
:104510002E0F00202B0F00202A0F00202DE9F04F36
:1045200087B07F4B01221A700DF1170000F004FDD7
:1045300000F0CCFC00219DF8170000F045FD4FF481
:10454000FC61002000F040FD764801F0ADF8FDF779
:10455000EBFE00240CE004EB4403734D05EB8305F4
:10456000284601F0DDFD284601F040FE0134E4B2AA
:10457000042CF0D96B4B1A7B6C4B1A7001F01CFFAA
:1045800083464FF0000A5A26694B01935746D1469D
:104590009DE005EB4505644800EB850001F026FE33
:1045A0000134E4B2042C0ED8254604EB44035E4AE1
:1045B00012F82330002BECD104EB440002EB800016
:1045C00001F0AEFDE5E7FDF749FF00250296CDF8C5
:1045D0000CA0DA463DE00024009507E03046FDF7E8
:1045E0001DFF284601F018FE0134E4B2042C2DD83A
:1045F00004EB44034C4A12F82330002BF4D004EBB4
:10460000440302EB83050BEB8B034A4E06EB830658
:104610003146284601F018FE0028E5D009F10109CD
:104620005FFA89F94FF4FC61484600F0CDFC9DF833
:1046300017304B45D2D28DF81790484600F08EFCCB
:1046400000219DF8170000F0BFFCC7E7009D013571
:10465000EDB2092D20D8AB4605EB8503354A52F85B
:104660002330002BF3D02F4B1B78002BB3D005EB5E
:10467000850302EB830421462A48FDF717FF002833
:10468000A9D02046FDF7CAFE264801F0AFFC01F094
:1046900093FE01900127DAE7029ED346DDF80CA0D5
:1046A00001F08AFEA0EB0B004FF47A7303FB0AF3D0
:1046B00098421FD801F080FE27B1019B03F6B83362
:1046C000834229D346B3A0EB08030F2B1ED91A4A05
:1046D00013780133137001F06FFE8046FEF7E2FF9E
:1046E000124C2070FDF706FE21780E4801F052FCB6
:1046F000002457E70AF101035FFA83FA013EF6B29C
:104700004FF47841304600F05FFCD3E7A8EB00009F
:10471000103001F057FEDAE707B0BDE8F08F00BFB8
:104720002F0F002088020020B0020020290F002057
:104730001445113FF80900202E0F002010B5FCF79A
:10474000B3FE0028FBD004460D4A136823F0400353
:104750001360FFF7C9FD022C02D0012C0DD010BD53
:104760004FF47841002000F02FFC4FF4FC61002052
:1047700000F02AFCFFF7E2FDFCE7FFF7CFFEFCE7C5
:10478000003C004010B584B0FF2302930123019345
:10479000094C009400227021084803F06FFB237835
:1047A000FD2B06D0FE2B02D0002004B010BD02204D
:1047B000FBE70120F9E700BF280F0020040E0020CE
:1047C00010B40122A0F12003C0F1200102FA03F38A
:1047D00022FA01F10B438240044948680C682243E5
:1047E00018430A60486010BC704700BFA00F00204B
:1047F00010B4094A13685468C0F12001A0F12002E6
:1048000023FA00F004FA01F1084324FA02F21043FB
:1048100000F0010010BC7047A00F002010B582B05E
:104820000446ADF80410082006F012FC50B1BDF8A3
:104830000420028062684260606023780133237044
:1048400002B010BD024807F0C1F8012006F0F2FBEB
:1048500020F701084068B0FA80F040097047F0B5D1
:1048600085B005460C460B7813F0010F06D14F7842
:10487000FE1FF6B23046FFF7BBFF10B3237813F0EC
:10488000020F06D16778FE1DF6B23046FFF7B0FF83
:1048900000B3237813F0040F06D167787E1EF6B2BA
:1048A0003046FFF7A5FFF0B1237813F0080F06D1CB
:1048B0006678741CE4B22046FFF79AFFE0B105B0B9
:1048C000F0BD8DF800708DF8016000992846FFF763
:1048D000A5FFD3E78DF804708DF80560019928468F
:1048E000FFF79CFFD5E78DF808708DF809600299F5
:1048F0002846FFF793FFD7E78DF80C608DF80D4041
:1049000003992846FFF78AFFD9E7000010B584B065
:1049100043687BB1044601A91B4804F01DFE78B929
:1049200023780199B1FBF3F203FB1211C9B22246BD
:1049300000230CE0154807F049F8012006F07AFB47
:1049400001F03AFD0190EBE752680133DBB28B4294
:10495000FAD350680388ADF808304368536006F016
:104960007FFB2378013B2370BDF80830ADF80C3095
:1049700000209DF80C3063F307009DF80D3063F3C1
:104980000F2004B010BD00BF600D002030F70108FB
:1049900030B583B0A54B00200021C3E90001002100
:1049A000A34B19600FE003EB4302C1EB011002447B
:1049B000A04C15190020A052A8700133DBB2042BC3
:1049C000F1D90131C9B2062901D80023F7E7002344
:1049D0000DE09849C3EB03128C18885C40F001008D
:1049E0008854227B42F0020222730133DBB2062B91
:1049F000EFD900230FE08F4903EB43028C18885C4A
:104A000040F00400885494F85A2042F0080284F8D8
:104A10005A200133DBB2042BEDD9002118E0C3EB9F
:104A2000C300084403EB430CC1EB01129444814AD8
:104A300062445070907861F303009070C0B263F3E9
:104A4000071090700133DBB2042BE8D90131C9B2F1
:104A5000062901D80023F7E7082006F0F9FA0346F3
:104A6000734C2060002058601870FFF7A9FE714950
:104A70002068FFF7F4FE23E06E4D03EB4301C0EB2B
:104A8000001E714415F801E04EF0020E05F801E039
:104A900002EB4202CCEB0C1C6244A95C41F0010128
:104AA000A95403EB4303C0EB00121344614A1344BF
:104AB0005878FFF785FE21465D4B1868FFF7CFFE5B
:104AC0005B4B1C682046FFF7C5FE002840F0828043
:104AD0002046FFF71BFFADF804009DF8055028465F
:104AE000FFF786FE0028EBD1534AA2FB0513E91A13
:104AF00003EB51039B08C3EBC300281AC0B2DBB21F
:104B000003EB4304C0EB00110C444A490C449DF8EC
:104B10000410A2FB01C2A1EB020C02EB5C029208A2
:104B2000C2EBC20CA1EB0C0C5FFA8CFCD2B2A1F16F
:104B3000070E7545A0D001F1070E75451CD001F197
:104B4000FF3E75452ED001318D4241D1394D03EBE9
:104B50004301C0EB001E714415F801E04EF0040E55
:104B600005F801E002EB4201CCEB0C1C61446A5CED
:104B700042F008026A5494E72E4D03EB4301C0EB68
:104B8000001E714415F801E04EF0010E05F801E039
:104B900002EB4202CCEB0C1C6244A95C41F0020126
:104BA000A9547EE7234D03EB4301C0EB001E714483
:104BB00015F801E04EF0080E05F801E002EB4202A4
:104BC000CCEB0C1C6244A95C41F00401A95468E7D9
:104BD000012029E00023062B0ED81649C3EB03124F
:104BE00088188D5C6FF300058D54027B6FF34102D2
:104BF00002730133DBB2EEE70023042B10D80D491A
:104C000003EB430288188D5C6FF382058D5490F896
:104C10005A206FF3C30280F85A200133DBB2ECE76D
:104C2000204606F01DFA002003B030BDA00F002082
:104C3000300F0020340F002025499224C0F3871242
:104C4000C1F387135FFA81FC01F03F0110F03E0FC2
:104C500038D11CF03E0F0DD03D291FD803EB430384
:104C6000C2EB02121344474AD05CC0F3800080F0CC
:104C70000100704703EB4301C2EB021001444148BD
:104C8000415C11F0010F04D011F0040F04D1012098
:104C900000E00120C0B270470020FBE703EB4301B6
:104CA000C2EB021001443748415C11F0040F04D0FC
:104CB00011F0020F04D1012000E00120C0B27047C2
:104CC0000020FBE700B500F03F0EBEF13D0F1DD800
:104CD0001CF03E0F0DD03D2951D903EB4303C2EB2D
:104CE00002121344274AD05CC0F3400080F0010058
:104CF0000AE003EB4303C2EB02121344214AD05CE7
:104D000000F0010080F001005DF804FB1CF03E0F94
:104D10000DD03D291FD803EB4303C2EB021213440D
:104D2000184AD05CC0F3C00080F00100ECE703EB50
:104D30004301C2EB021001441248415C11F0010F23
:104D400004D011F0080F04D1012000E00120C0B20E
:104D5000DAE70020FBE703EB4301C2EB021001445A
:104D60000848415C11F0080F04D011F0020F04D183
:104D7000012000E00120C0B2C6E70020FBE70020D0
:104D8000C2E700BF340F00202DE9F04F87B0059037
:104D9000049103920293BDF91430002B67DD494A58
:104DA0001288934267DABDF91640002C65DD46494A
:104DB00009888C4263DABDF91050002D61DDAA42EA
:104DC00061DDBDF91260002E5FDDB1425FDDBDF92E
:104DD0000C70002F5DDDBA425DDDBDF90E90B9F1BA
:104DE000000F5ADD49455ADDBDF908A0BAF1000FA0
:104DF00057DD524557DDBDF90AB0BBF1000F54DD58
:104E0000594554DD9BB20193984645450ADDA1B250
:104E10004046FFF713FF00284BD108F102081FFAA4
:104E200088F8F2E7BFB2BA4509DD1FFA89F13846C2
:104E3000FFF704FF00283ED10237BFB2F3E7A4B268
:104E4000A14507DD21460198FFF7F8FEA8BB023413
:104E5000A4B2F5E7B6B2B34507DD3146A8B2FFF715
:104E6000EDFE60BB0236B6B2F5E7002000E001209F
:104E700007B0BDE8F08F0120FAE70120F8E7012034
:104E8000F6E70120F4E70120F2E70120F0E7012036
:104E9000EEE70120ECE70120EAE70120E8E7012046
:104EA000E6E70120E4E70120E2E70120E0E7012056
:104EB000DEE70120DCE70120DAE70120D8E7012066
:104EC000D6E700BF7E0200207C02002038B5FFF745
:104ED0005FFD00B138BD164B1B88013B154A128897
:104EE000013A9BB292B200210846FEF7A5F8FEF700
:104EF00023F8002515E04FF6FF70FEF753F8013454
:104F0000A4B20C4B1B88A34209D929462046FFF7BF
:104F100095FE0028EFD00020FEF744F8EFE70135BA
:104F2000ADB2034B1B88AB42D4D90024E9E700BFE4
:104F30007C0200207E02002000B585B0FF23029392
:104F40000122019200900223A021034802F096FF63
:104F500005B05DF804FB00BF040E002000B587B06B
:104F60008DF81700FF230293012201920DF1170320
:104F700000930223A021034802F0ACFE07B05DF8C5
:104F800004FB00BF040E0020F8B517461E4601F1D1
:104F9000150300F10F029BB292B2FEF74DF8FDF738
:104FA000CBFF00250AE004EB051136F81100384369
:104FB000FDF7F8FF01340F2CF5DD0135152D01DC6F
:104FC0000024F8E7F8BD00002DE9F0410D462B4B19
:104FD000A3FB00235B09642202FB1300C0B2284B31
:104FE000A3FB0023DB0803EB8302A0EB4200C4B267
:104FF000DEB2B1F5784F05D0B5F5FC6F16D04DB3E4
:10500000BDE8F0814FF430781E4F08FB06730A4666
:105010005A214FF4E070FFF7B7FF08FB04732A46EC
:105020005A214FF4E870FFF7AFFFE5E74FF430780F
:10503000144F08FB06732A46D2214FF4E070FFF7A5
:10504000A3FF08FB04732A46D2214FF4E870FFF750
:105050009BFFD4E74FF430780A4F08FB06732A46CB
:1050600096214FF4E070FFF78FFF08FB04732A4688
:1050700096214FF4E870FFF787FFC1E71F85EB51DA
:10508000CDCCCCCC449005080268044B9A4200D0A9
:105090007047034B01221A70FAE700BF0454014025
:1050A0008002002008B5074B1B785BB2012B00D0B3
:1050B00008BD82B2044804F027FD024B00221A709A
:1050C000F6E700BF80020020C80C002000B583B0C6
:1050D0000B4B1A6E42F001021A661A6E02F00102C0
:1050E0000092009A9A6D42F080529A659B6D03F08F
:1050F00080530193019B03F079F803B05DF804FB42
:105100000010024010B59EB00446002119911A917A
:105110001B911C911D91542204A806F0A7FC236842
:10512000B3F1A04F04D0354A934234D01EB010BD25
:105130004FF4004304934FF00053159304A803F079
:1051400067FCD0B92E4A136801331360012B17D0C6
:105150002C4BDA6C42F00402DA64DB6C03F00403DB
:105160000193019B0C23199303231A9300231B9390
:1051700019A9254802F08AFAD8E7FEF74DFEE1E7C3
:10518000204BDA6C42F40052DA64DB6C03F4005317
:105190000093009BDCE74FF4004304934FF000536F
:1051A000159304A803F034FCD0B9154A13680133F1
:1051B0001360012B17D0134BDA6C42F00102DA6452
:1051C000DB6C03F001030393039B032319931A93EE
:1051D00000231B9319A94FF0904002F057FAA5E75E
:1051E000FEF71AFEE1E7074BDA6C42F40052DA648C
:1051F000DB6C03F400530293029BDCE700010050D8
:10520000AC0F0020001002400008004810B59CB010
:10521000044600211791189119911A911B9154225B
:1052200002A806F023FC2268184B9A4201D01CB059
:1052300010BD4FF48073029302A803F0E9FB08BB92
:10524000134CE36C43F00403E364E36C03F00403E6
:105250000093009B4FF4407317931223189300237D
:1052600019931A9308231B9317A90A4802F00EFA00
:10527000A36D43F08043A365A36D03F080430193C6
:10528000019BD4E7FEF7C8FDDAE700BF00780040D5
:10529000001002400008004810B59CB004460021F0
:1052A0001791189119911A911B91542202A806F096
:1052B000DDFB2268174B9A4201D01CB010BD2023A1
:1052C000029302A803F0A4FB00BB134BDA6D42F07B
:1052D0000102DA65DA6D02F001020092009ADA6CDE
:1052E00042F00102DA64DB6C03F001030193019BDD
:1052F0000C23179302221892002219921A921B93E0
:1053000017A94FF0904002F0C1F9D6E7FEF784FDEF
:10531000DBE700BF008000400010024010B596B0EF
:1053200004465422002101A806F0A0FB2268114B7C
:105330009A4201D016B010BD4FF48043019301A8EA
:1053400003F066FB90B90C4BDA6C42F08062DA64D1
:10535000DB6C03F080630093009B002211465A200F
:1053600001F0F0FF5A2001F0FDFFE3E7FEF754FDE6
:10537000E9E700BF000806500010024000B585B004
:105380000368224A934208D0214A934218D0214A06
:10539000934228D005B05DF804FB1F4B9A6D42F094
:1053A00004029A659B6D03F004030193019B0022A4
:1053B00011461E2001F0C6FF1E2001F0D3FFE9E7D1
:1053C000154B9A6D42F008029A659B6D03F0080335
:1053D0000293029B00221146322001F0B3FF3220DB
:1053E00001F0C0FFD6E70C4B9A6D42F010029A65AF
:1053F0009B6D03F010030393039B0022114636209C
:1054000001F0A0FF362001F0ADFFC3E70008004027
:10541000000C00400010004000100240F0B59DB0AC
:1054200004465422002102A806F020FB2268494BC2
:105430009A4205D02268484B9A425FD01DB0F0BD19
:105440004FF48063029302A803F0E2FA00284FD1E0
:10545000424B1B684BB9424A116E41F40011116670
:10546000126E02F400120092009A01333B4A13605C
:105470000226179618960025199503271A970D23CB
:105480001B9317A9374802F001F94FF4E063179313
:10549000189619951A970E231B9317A9324802F0F4
:1054A000F5F8324B5A6842F480225A605A6842F446
:1054B00000225A602E4803F58033303303606C239A
:1054C000436010238360C560802303614FF48073C1
:1054D00043614FF480638361C561056201F0BEFFE3
:1054E00048B9234BC4F884309C62C4F88030A1E7EB
:1054F000FEF792FCACE7FEF78FFCF2E74FF4806317
:10550000029300230E9302A803F082FAF0B9134B22
:105510001B684BB9124A116E41F400111166126EEC
:1055200002F400120192019A01330C4A1360202305
:105530001793022318930023199303231A930C2320
:105540001B9317A9084802F0A1F877E7FEF764FC5F
:10555000DDE700BF0454014024540140A80F00209F
:10556000001002400008004800040048000001400C
:10557000D00B0020FEE7FEE7FEE7FEE7FEE7704700
:105580007047704708B500F00BFF08BD08B502482A
:1055900002F01AF808BD00BFD00B002008B5024881
:1055A00004F0F4FB08BD00BF840B002008B54FF4E5
:1055B000005002F067F908BD08B5024804F0E6FBA8
:1055C00008BD00BF380B002008B5024804F0DEFB20
:1055D00008BD00BFEC0A002008B5024803F0F5FF43
:1055E00008BD00BF600D00200120704708B506F01F
:1055F000DDFC162303604FF0FF3008BD08B54FF007
:10560000FF31FFF7F3FFFEE770B50C4616460025A5
:1056100006E0AFF30080214601F8010B01350C468E
:10562000B542F6DB304670BD70B50C461646002517
:1056300004E014F8010BFEF7DBFA0135B542F8DBA4
:10564000304670BD4FF0FF3070474FF400534B6051
:1056500000207047012070470020704710B50346B6
:105660000C4A0D490D48006840B10C4800680344DD
:10567000521A934206D8094A136010BD0748084CD5
:105680000460F2E706F092FC0C2303604FF0FF3059
:10569000F3E700BF0000022000040000B00F00206C
:1056A00008130020704700002DE9F04184B0044643
:1056B0000023C0F802308371012303700523437077
:1056C0003049314803F048FF10B12E4B00221A60D8
:1056D0002C4B1A682D4BA3FB02131B0903EB83030E
:1056E000A2EB83032373A268DBB203EB430302EB59
:1056F00083031E7976085D796D08224FDFF8888074
:105700003946404603F028FF214B1A883B68B3FB1B
:10571000F2F102FB1133E3813946404603F01CFFEE
:105720001C4B1A883B68B3FBF2F102FB1133238256
:10573000E289911B09B2ADF800109BB2581B00B270
:10574000ADF80200324492B2013A12B2ADF8042030
:10575000ADF80600ADF808102B449BB2013B1BB21C
:10576000ADF80A30ADF80C20ADF80E30039B029A6C
:1057700001990098FFF708FB0028BED104B0BDE8EE
:10578000F08100BFE40F0020600D0020CDCCCCCC18
:105790007E0200207C0200202DE9F04FA3B00446D9
:1057A000ADF8041015468268037B03EB430302EB5C
:1057B000830393F80490B04981F8009093F8058032
:1057C000AE4B83F8008005EB450302EB830393F8AF
:1057D00004C0AB4A82F800C05F79AA4B1F70B0F9D1
:1057E0000E20A9490A80B0F910304B8092B29DF981
:1057F000041012FA81F188B2DFF890E2AEF80010DE
:105800009BB29DF9056013FA86F6B1B2AEF802605C
:10581000A2EB590636B2DFF878A2AAF80060A3EB33
:10582000580E0FFA8EFEAAF802E002EB590292B26D
:10583000013A12B2DFF85C92A9F80020A9F802E060
:10584000DFF854E2AEF8006003EB58039BB2013B73
:105850001BB2AEF80230914E32807380A0EB5C0335
:105860001BB28F4E3380A1EB570E0FFA8EFEA6F8B7
:1058700002E000EB5C0292B2013A12B28948028067
:10588000A0F802E0DFF820C2ACF8003001EB5703CB
:105890009BB2013B1BB2ACF8023084490A804B80BA
:1058A0000B68DCF8002001683068FFF76DFA00280B
:1058B00040F05D83BAF90000B6F90020904212DB97
:1058C0007A4BB3F9003098422DDCBAF90230B6F9C0
:1058D00002108B422ADB7549B1F902108B4228DD98
:1058E0004FF0000C01E04FF0000C5FFA8CF8704BA9
:1058F00083F80080674BB3F90060B2421CDC6B4B4D
:10590000B3F900309E4239DC624BB3F9023064498E
:10591000B1F902108B4233DB6449B1F902108B42BA
:1059200030DD002109E04FF0000CDEE74FF0000C05
:10593000DBE74FF0010CD8E700215FFA81F95D4BFE
:1059400083F80090544BB3F90070BA421CDC574BFB
:10595000B3F900309F4237DC4F4BB3F90230DFF828
:1059600040E1BEF902E0734531DBDFF840E1BEF90A
:1059700002E073452EDD0023009307E00021DCE701
:105980000021DAE70121D8E7002300939DF800A069
:10599000494B83F800A0414BB3F900E072451CDC91
:1059A000424BB3F900309E4535DC3C4BB3F902B0B5
:1059B0003B4BB3F902309B452FDB3C4BB3F9023034
:1059C0009B452CDD002309E000230093DEE7002344
:1059D0000093DBE701230093D8E70023DFF8DCB076
:1059E0008BF800306144DDF800C08C446344012B27
:1059F00000F08F80022B14D0002B00F00281234B8B
:105A0000B3F90020E281B3F902302382257301202B
:105A100023B0BDE8F08F0023E0E70023DEE7012399
:105A2000DCE7B8F1000F4DD0B9F1000F12D1BAF197
:105A3000000F1CD01B4BB3F90030ADF80C30154BE8
:105A4000B3F90230ADF80E30144B19680398FDF726
:105A500045FBD4E7ADF80870134BB3F90230ADF84D
:105A60000A300E4B19680298FDF738FBC7E7144857
:105A700005F044FFC3E700BFE30F0020E20F002062
:105A8000E10F0020E00F0020DC0F0020D80F0020E5
:105A9000D40F0020D00F0020CC0F0020C80F002012
:105AA000C40F0020C00F0020BC0F0020B80F002042
:105AB000B70F0020B60F0020B50F0020B40F002054
:105AC00020240708B9F1000F0FD1BAF1000F1CD044
:105AD000ADF81460AB4BB3F90230ADF81630059950
:105AE000A94B1868FDF7FAFA89E7A84BB3F900301B
:105AF000ADF81030A64BB3F90230ADF8123004996E
